{
  "contractName": "Payment",
  "abi": [
    {
      "payable": true,
      "stateMutability": "payable",
      "type": "fallback"
    },
    {
      "anonymous": false,
      "inputs": [
        {
          "indexed": true,
          "name": "invoiceId",
          "type": "string"
        }
      ],
      "name": "Paid",
      "type": "event"
    },
    {
      "constant": false,
      "inputs": [
        {
          "name": "amount",
          "type": "uint256"
        },
        {
          "name": "payee",
          "type": "address"
        },
        {
          "name": "fee",
          "type": "uint256"
        },
        {
          "name": "provider",
          "type": "address"
        },
        {
          "name": "invoiceId",
          "type": "string"
        }
      ],
      "name": "makePayment",
      "outputs": [
        {
          "name": "",
          "type": "bool"
        }
      ],
      "payable": true,
      "stateMutability": "payable",
      "type": "function"
    }
  ],
  "bytecode": "0x608060405234801561001057600080fd5b50610396806100206000396000f3fe60806040526004361061001e5760003560e01c8063e072659d14610077575b6000610075576040517f08c379a000000000000000000000000000000000000000000000000000000000815260040180806020018281038252602b81526020018061031f602b913960400191505060405180910390fd5b005b610184600480360360a081101561008d57600080fd5b8101908080359060200190929190803573ffffffffffffffffffffffffffffffffffffffff16906020019092919080359060200190929190803573ffffffffffffffffffffffffffffffffffffffff169060200190929190803590602001906401000000008111156100fe57600080fd5b82018360208201111561011057600080fd5b8035906020019184600183028401116401000000008311171561013257600080fd5b91908080601f016020809104026020016040519081016040528093929190818152602001838380828437600081840152601f19601f82011690508083019250505050505050919291929050505061019e565b604051808215151515815260200191505060405180910390f35b600083860134146101fa576040517f08c379a000000000000000000000000000000000000000000000000000000000815260040180806020018281038252602181526020018061034a6021913960400191505060405180910390fd5b8473ffffffffffffffffffffffffffffffffffffffff166108fc879081150290604051600060405180830381858888f19350505050158015610240573d6000803e3d6000fd5b508273ffffffffffffffffffffffffffffffffffffffff166108fc859081150290604051600060405180830381858888f19350505050158015610287573d6000803e3d6000fd5b50816040518082805190602001908083835b602083106102bc5780518252602082019150602081019050602083039250610299565b6001836020036101000a03801982511681845116808217855250505050505090500191505060405180910390207f135230638ed83f859d289a9c4c8ab47ce7e8e9f4ce5682233bbd163e94ce4e0f60405160405180910390a29594505050505056fe4e6f206d6573736167652064617461202d2d2066616c6c6261636b2066756e6374696f6e206661696c656456616c7565206f6620746865207061796d656e7420697320696e636f7272656374a165627a7a723058208e41d0a91e297fcbf7351e3d959b31dbb8b946db49edd068221ba07323ad3d910029",
  "source": "pragma solidity ^0.5.0;\n\ncontract Payment {\n\n    event Paid(string indexed invoiceId);\n\n    function makePayment(\n        uint amount,\n        address payable payee,\n        uint fee,\n        address payable provider,\n        string memory invoiceId\n        )\n        public payable returns(bool) {\n        require(msg.value == amount + fee, \"Value of the payment is incorrect\");\n        payee.transfer(amount);\n        provider.transfer(fee);\n        emit Paid(invoiceId);\n    }\n\n    function() external payable {\n        require(false, \"No message data -- fallback function failed\");\n    }\n}\n\n",
  "sourcePath": "/home/audrey/Nextcloud/home/projects/paywei/contracts/contracts/Payment.sol",
  "compiler": {
    "name": "solc",
    "version": "0.5.8+commit.23d335f2.Emscripten.clang"
  },
  "schemaVersion": "3.0.11",
  "updatedAt": "2019-07-02T17:38:03.607Z",
  "devdoc": {
    "methods": {}
  },
  "userdoc": {
    "methods": {}
  }
}